:020000022000DC
:106000000000012079630200616302006363020003
:10601000656302006763020069630200000000001C
:106020000000000000000000000000006B630200A0
:106030006D630200000000006F63020071630200E4
:10604000B98302007363020039880200736302009F
:106050007363020073630200BD8602007363020073
:1060600073630200736302007363020073630200D0
:1060700073630200736302007363020073630200C0
:10608000736302008D710200736302007363020088
:106090002972020073630200C5A402007363020048
:1060A0007363020073630200736302007363020090
:1060B0007363020073630200000000000000000030
:1060C0007363020073630200736302007363020070
:1060D0007363020073630200736302000000000038
:1060E00000000000000000000000000000000000B0
:1060F00000000000000000000000000000000000A0
:10610000000000000000000000000000000000008F
:10611000000000000000000000000000000000007F
:10612000000000000000000000000000000000006F
:10613000000000000000000000000000000000005F
:10614000000000000000000000000000000000004F
:10615000000000000000000000000000000000003F
:10616000000000000000000000000000000000002F
:10617000000000000000000000000000000000001F
:10618000000000000000000000000000000000000F
:1061900000000000000000000000000000000000FF
:1061A00000000000000000000000000000000000EF
:1061B00000000000000000000000000000000000DF
:1061C00000000000000000000000000000000000CF
:1061D00000000000000000000000000000000000BF
:1061E00000000000000000000000000000000000AF
:1061F000000000000000000000000000000000009F
:10620000364937480A1A02D0072291438D4635494C
:1062100035480A1A06D00722914381F309880222E1
:1062200082F3148831483249324A00F045F8324846
:106230003249334A00F040F832483349334A00F0DB
:106240003BF833483349344A00F036F83348344990
:10625000344A00F031F834483449354A00F02CF81B
:1062600034483549354A00F027F835483549002289
:1062700000F02DF834483549002200F028F8344861
:106280003449091A082903DB002202600430016046
:10629000314A90471F482049884205D0026804309F
:1062A00003B4904703BCF7E700208646EC46002085
:1062B00000212A4A9047FEE7884207D0521A05D0AB
:1062C000037801300B700131013AF9D170478842EF
:1062D00002D002700130FAE7704700000000012090
:1062E00000E0002000000120000001205CB7020057
:1062F000B822002008230020D8630200D8630200DF
:106300002EA902005CB70200B8220020B8220020AB
:1063100004AA020004AA020004AA020004AA0200BD
:1063200004AA020004AA020004AA020004AA0200AD
:106330005CB70200ACB7020008230020082300204D
:10634000082300207C2C00207C2C00207C2C0020AA
:106350007C2C00207C4C0020A16302003D930200B5
:10636000FEE7FEE7FEE7FEE7FEE7FEE7FEE7FEE705
:10637000FEE7FEE7704700BF1048804710484FF027
:106380000701884385460F4880470F48016841F45C
:1063900070010160BFF34F8FBFF36F8FFFF730BF06
:1063A0000A480B490B4A884207D0521A05D0037895
:1063B00001300B700131013AF9D170477563020069
:1063C000000001204D7E020088ED00E004AA0200DA
:0863D000B8220020B8220020D1
:1063D800F0B595B01C46164608460D4601F049FC36
:1063E8001A9B0D93CDE9086400242346082205A9C9
:1063F80028460A948DF82C400C9401F058FC079B11
:106408000293BDF81830ADF80C30BDF81A30ADF86D
:106418000E309DF814308DF8114003F00302012A64
:106428001DD1BDF81440059EC3F3C203C4F3831401
:106438008DF81030A20008230EA9284601F037FC79
:10644800C6F3952608AB0093224602AB0EA9304648
:1064580000F0D6FB284601F010FC15B0F0BD022A6A
:10646800F8D1BDF81640C3F3C203A4098DF8103063
:106478000827082C264628BF08263B4632460EA980
:10648800284601F014FCA41B08AB02AA31460EA84A
:10649800374400F019FC002CEBD1DBE7014B01225B
:1064A8001A707047492300207047000070B50E4DE0
:1064B80006460FCD88B06C460FC495E80F0084E8F7
:1064C8000F0008A9002E4FF00603084A41F8203DA6
:1064D80008BF0022064801F0F5FE08B100F0A4FD4F
:1064E800044B1E7008B070BD04AA0200A564020027
:1064F800B82200200823002007B5044B0093044A63
:106508004023FFF765FF03B05DF804FB1D6502003B
:106518000923002038B50D4B0D4D002018700D488B
:1065280004782D5DD2B21C4665B1043002F0B8FD86
:1065380008B100F079FD084B1A7812B12378002BC6
:10654800FBD038BD0C3002F0A5FBF1E74923002051
:10655800702A0020B82200200823002008B5084827
:10656800084A0378D35C3BB1043002F035FD0020C3
:10657800BDE80840FFF79ABF0C3002F027FBF6E7AA
:10658800B8220020702A00200120FFF78FBF0000EA
:1065980008B5FFF7F9FF0421034800F09FFA034B01
:1065A80001225A7108BD00BFF4A90200CC220020C4
:1065B800037813F0040216D003F00303012B03D071
:1065C800022B09D0012070470A6800880232C0F304
:1065D800831002440A60F5E70B684288023303EB34
:1065E80092130B60EEE71046704700002DE9F04F5C
:1065F80089B00546861C08A8484C019200230F461E
:1066080000F8113D00F0F8FF23683B60D4E901234E
:106618001344226801339B1A04F21C4704F5836A69
:1066280004F21448B3421AD3019A0023002A6DD009
:10663800012262F3010343F0040365F3891321681F
:10664800A2689DF80F000A4003320E4444F8223035
:10665800266000F0F5FF012009B0BDE8F08F0121A8
:10666800384601F04AF8504601F05DF8404601F01E
:106678005AF80DF120096068D4F808B049F8100DEF
:1066880000EA0B00033004EB80004946FFF790FF57
:10669800049BB0B90BEA030204EB8202D1680591AE
:1066A8009A1C013303EA0B0B04EB8B0C01F0030378
:1066B800012B0492DCF80CB020D0022B04D08346C6
:1066C8000BE00BEA0300DDE7BDF816309B09033346
:1066D8004FEA1B4B02EB93030493404601F026F864
:1066E80008B1049B63605946384601F006F8D4E9BE
:1066F80001231344226801339B1A93E7BDF8143031
:10670800C3F383134FEA1B4B1344E5E7022262F3FA
:10671800010343F0040365F39F5390E71C24002012
:106728000B4B0C48FF2210B59A600022C3F81824BE
:10673800C3E90022C3F8142483F8202401F052FA94
:10674800044610B9044801F0FBFA204610BD00BF0A
:106758001C24002080A9020044AA020030B50A4C7B
:1067680071B10A4A0A49121BD20800239A4201D180
:10677800002030BD31F82350854202D00133F5E7BF
:10678800034654F83300F4E794A90200F4A9020080
:10679800B8220020094B013903EBC000032909D8AE
:1067A800DFE801F00A020406042070470079704708
:1067B80040797047002070470220704794A9020072
:1067C800034BD3E90030C31A58425841704700BF01
:1067D8001C2400202DE9F04387B0FFF7F1FF06469F
:1067E800002840F0FC807F4DC5F81804BFF34F8F98
:1067F8006868AC6806AF47F8100D2040033005EB19
:1068080080003946FFF7D4FE029B18B1D5F818244A
:10681800002A5FD004EA0302991C013305EB8202C7
:10682800234005EB8303D268DB68049302F003037B
:10683800022B0392029162D1BDF80E306A484FEAEA
:106848009318B8F1500FC14628BF4FF0500969F3AB
:106858008F1309F10801ADF80E3001F0DBF9074696
:10686800002800F0A78001F004FA03A900230822F9
:10687800384601F011FA029924EA01060136B600F9
:10688800B14535D95FFA89F97EB3F6B2A9EB0609A5
:10689800214003315FFA89F4B146544E05EB81017A
:1068A80008234A46384601F0F7F936B109F10803DA
:1068B80022463146384601F0EFF9029B08F10308F9
:1068C80003EB98030293D5F81834002B4BD1D5F875
:1068D80010445BE02A689A4204D86A60304607B0E0
:1068E800BDE8F08304EA030088E740493446D7E767
:1068F8002140033108234A4605EB8101DAE7012BE1
:1069080058D1BDF80C303848C3F38311062928BF85
:10691800062161F3891302318900ADF80C3001F0CA
:1069280079F90746002845D001F0A3F90023082289
:1069380003A9384601F0B0F90026BDF80C20C2F3CF
:106948008312B31C96424FEA8303BCD202994A1CB5
:1069580021400331029205EB81010422384601F0FF
:106968009BF90136E9E7384601F087F9FFF728FF78
:1069780080F00100C6B2B1E7E3685B7923B1236810
:1069880039461B6820469847E3681C68002CF3D1F9
:10699800384601F072F906A800F8114D00F02CFEF7
:1069A800D5F818340BB9029B6B609DF8070000F00E
:1069B80047FEDBE7D5F8104454B90D4B0D480E4996
:1069C800C01AC008000440F0020000F06FF8CDE7DC
:1069D800236820469B689847E3681C68ECE7002614
:1069E8007CE700BF1C24002080A902002824002086
:1069F80094A90200BCA9020050AA02002DE9F74F91
:106A0800284C80460F46924601A9012218469B460B
:106A1800D4F80890FFF7EAFD88B3019D0026A91C69
:106A28005E4506EB010234D100211F4800F03AFE12
:106A380080F310006A1C02EA090204EB82020004D7
:106A480005EA0903033340EA1840D06014F823200C
:106A580068F3C50204F8232034F8232066F389126A
:106A680024F8232054F82320012167F39F2244F8B7
:106A7800232061F301026FF3820204F8232094F8C3
:106A880020341BB1FFF7A6FE0028FBD103B0BDE8F8
:106A9800F08F09EA020204EB82025AF82630D3602A
:106AA8000136BDE71C2400203828002000231A46A0
:106AB800FFF7A4BF13B502AC012344F8042D224606
:106AC800FFF79CFF02B010BD07B5CDE900230223F4
:106AD8006A46FFF793FF03B05DF804FB30B50F4932
:106AE800D1F81024002314463CB9C468237152B964
:106AF800C1F810042260184630BDE46825799D422B
:106B080006D02468F0E7D268116821601060F2E7C7
:106B180001330A2BE7D14FF0FF33ECE71C240020A8
:106B2800094A38B50123D2F8104482F820341D46AA
:106B380004B938BDE3685D71236820465B689847EF
:106B4800E3681C68F4E700BF1C240020037A052BC7
:106B580010B50C460FD0437A23B1084A084920469D
:106B680000F045FE0749204600F041FE2046BDE8FA
:106B7800104000F031BE002AF8D0F3E79BAA0200CB
:106B8800A0AA0200C0AA0200C38873B504460D4635
:106B980033B1144A00921449144A284600F027FEDB
:106BA800217A05291CD0637A4BB1A088FFF7F2FD42
:106BB8000F4B104953F82020284600F018FE227A7F
:106BC8000D4BA08853F822600021FFF7C7FD0B4941
:106BD80003463246284602B0BDE8704000F007BEC2
:106BE80002B070BD9BAA0200ABAA0200A3AA0200D1
:106BF80068AA0200A0AA0200D0AA0200C3AA020042
:106C08002DE9F04385B01F460C9D002306460C462F
:106C1800904695F80C902B7329463846FFF7B4FF39
:106C2800B8F1060F09D8DFE808F00412181F283356
:106C380040003146284600F0DAFD00222946384651
:106C4800FFF784FF85F80C9005B0BDE8F083226853
:106C58003146284600F0CBFDEFE7D4E90023314662
:106C6800284600F0C4FDE8E7A36800933146D4E95C
:106C78000023284600F0BBFDDFE7E3680193A36823
:106C880000933146D4E90023284600F0B0FDD4E74C
:106C980023690293E3680193A36800933146D4E91A
:106CA8000023284600F0A3FDC7E76369039323691F
:106CB8000293E3680193A36800933146D4E9002363
:106CC800284600F094FDB8E708292DE9F84F8046DA
:106CD8000E4617461C4636D8002593F80C901D73AF
:106CE80019461046FFF750FFDFF87CA0DFF87CB0AC
:106CF800AE422AD918F805205946204600F077FDFB
:106D08000135082DF4D11649DFF864B0204600F0AB
:106D18006EFD0025AE421DD918F805A0504603F0B7
:106D280071FD002814BF52462E225946204600F015
:106D38005EFD0135082DEDD1012221463846FFF7C9
:106D480005FF84F80C90BDE8F88F5146204600F006
:106D58004EFDD5E70349204600F049FDE9E700BFAD
:106D680096AA020094AA020092AA02008CAA020023
:106D780098AA02002DE9F04F3B4F89B000263B4B03
:106D88001B78F5B2AB4202D809B0BDE8F08F384B9A
:106D9800196811F835000124A0F12002C0F1200380
:106DA80004FA02F924FA03F349EA0309D7E90023AC
:106DB80004FA00F8CDE9042302EA080203EA090309
:106DC800134301EBC50B4CD0DDE9042322EA08028A
:106DD80023EA0903C7E90023079101F061FC079939
:106DE800844611F83500A0F12002C0F1200324FAEE
:106DF80003F304FA02F21A4304FA00F300931D4B5A
:106E08000192DDE90045D3E9002314401D402246E4
:106E18002B465FFA8CF40025CDE90445049CA0F1CB
:106E28002005AC400394049CC0F1200124FA01F130
:106E3800039C0C430499039481400291DDE90245C7
:106E4800AB4208BFA2420CD19BF801104B1E59421D
:106E58005941A1EB0C02DBF804305142514103B116
:106E6800984701368BE700BF08290020D828002062
:106E780010290020002900202DE9F84F0646244853
:106E880000F0AAFB002841D10123A6F12001C6F198
:106E9800200203FA01FB23FA02F203FA06FA1D4B59
:106EA800D3E900014BEA020B00EA0A0801EA0B09E0
:106EB80058EA09021F4623D1304601F0F1FB164B70
:106EC800B8B1D3E9000140EA0A0441EA0B05C3E975
:106ED8000045D7E900234BEA0305104B0C48196815
:106EE8004AEA0204C7E900450022BDE8F84F00F06D
:106EF8002FBBD3E9000120EA0A0421EA0B05E6E7E3
:106F080020EA0A0421EA0B05C3E90045BDE8F88F29
:106F1800E02800200829002000290020DC28002083
:106F2800042A2DE9F34105460C4616463AD901F0E4
:106F3800CDFAD8B11C4B1D491D601D4BDFF884806C
:106F48001C701C4B00221E600023C1E900231A4953
:106F5800C1E90023013CE4B200260327FF2C0CD131
:106F6800164A1748002100F0E1FA03E001F076FA2A
:106F78000028DFD002B0BDE8F08123B205EBC302E0
:106F880001A992788DF8052015F833008DF8066070
:106F980042468DF8047001F0A3FA013CE4B20028DF
:106FA800DCD0E7E70720E5E71029002000290020CA
:106FB800D8280020DC280020082900207D6D020048
:106FC80030AB0200816E020070B5084D084E0024F7
:106FD8002B789C4201D3002070BD3368012113F83F
:106FE800340001F0F5FA0134F2E700BFD828002098
:106FF8001029002070B5094D094E00242B789C42B9
:1070080004D30848BDE8704000F0E6BA336813F8C6
:10701800340001F023FB0134F0E700BFD82800203A
:1070280010290020E02800201FB50021039001AAA4
:1070380044F20100CDE9011100F004F805B05DF853
:1070480004FB000010B572B6FFF76AFDFFF7C2FB3C
:107058000028FBD1104B114C1149E41AE408240410
:1070680044F00100FFF722FD0E4B1B68DB0700D53B
:1070780000BE0D4944F00200FFF718FDBFF34F8F23
:107088000A490B4BCA6802F4E0621343CB60BFF3B2
:107098004F8F00BFFDE700BF94A90200BCA9020002
:1070A80034AB0200F0ED00E040AB020000ED00E080
:1070B8000400FA05094A537891780133DBB2994202
:1070C80008BF0023117899421FBF03705078182316
:1070D80003FB002014BF043000207047142900204F
:1070E80073B5054602A8002400F8014D0E4600F0CD
:1070F80083FA0DF10600FFF7DDFF90B106700A4B29
:107108009DF8062045605A709DF8070000F098FA2F
:1071180024B9064B4FF48012C3F80021204602B070
:1071280070BD0424F0E700BF1429002000E100E04E
:10713800024B4FF43C6043F00103184750AB020088
:1071480038B50C4B0C4C4FF40032C3F880200125A5
:107158004FF48033C4F84833C4F808336560FFF748
:10716800E7FF064BA56000241C60FFF7E1FF044B16
:107178001C7038BD00E100E000100140302A0020FA
:10718800212A0020F8B51F4B1F491B680025C1F8AC
:107198004051C1F84451C1F84851C1F84C51C1F8A7
:1071A8000051C1F804514BB3D1F804451749096897
:1071B800641A24F07F442F461A68A24209D8A41AF8
:1071C80015441A7CDE691AB11F74D3E9052090476B
:1071D800AEB90F4B0F4A197813788B4205D101339A
:1071E800DBB2022B08BF0023137012780A4B43F856
:1071F80022500A4B4FF48012C3F80021F8BD3346E1
:10720800DAE700BF342A002000100140302A0020AD
:107218002C2A00202D2A0020242A002000E100E04A
:107228002DE9F74F9E4A9F49137809789E4D994258
:107238003CD00133DBB2022B08BF002313709B49FB
:1072480012789B4B0F6853F822003B1823F07F43BA
:1072580000220B602B6816461446944613B942B1B7
:107268002B6006E0196881420ED902B12B60091A19
:1072780019604FF001082B68DFF83CA20093002743
:10728800BEB9DFF83CB260E0401A0C44D968C3F8D4
:1072980000C0D3F81CE031B13A1922F07F42C3E9AB
:1072A8000121DE611E4601227346D7E70026B0465B
:1072B800E1E73446F6697D4A63681268DFF804C27C
:1072C800A068991A21F07F41614500F2A580014428
:1072D8002160012222742A680023C4E90133E36192
:1072E800002A40F0A2802C60CAE75A1C9BF80210C2
:1072F800D2B291428BF8002004BF00228BF8002004
:10730800182202FB03B32A6819799C68022974D0F1
:1073180003297ED0012918D1217CB1B9DA686260CD
:107328001A69A2605A699B69A361624BE2601B7883
:10733800002BC0D06160BEE79C4200F09380994664
:10734800DB69002BF8D1002323749BF800309BF8ED
:1073580001209A42C9D12B682FB9009A934202D1D1
:10736800B8F1000F43D0002B79D0D3F800A0524DCC
:107378004E4BD5F804751C68DFF84C813E1B98F815
:10738800003026F07F4603369BB94FF48033C5F8AA
:107398004433C5F80433494B4FF400324FF0010928
:1073A800C3F880211A60C5F80090FFF7C1FE88F87D
:1073B8000090B2452CBF5444A41924F07F44C5F86A
:1073C8004045D5F80435DB1B23F07F43E41B03332A
:1073D80024F07F44A3420AD9D5F80435C5F84035CE
:1073E800FFF7A6FE354B4FF40032C3F80021314BAE
:1073F80000221A7003B0BDE8F08F13469146A0E74B
:107408001174D2690123002AFAD1002B9DD02A6079
:107418009BE700231946F6E7D31A23F07F438342FC
:1074280034BFC31A0023236053E7216813689942C5
:1074380013D8591A1160E26155E7091AD8691A4632
:1074480038B1034618688842F7D3401A18601846BE
:1074580013462160E061DC6112E71346F2E7FFF7AB
:107468006FFEC4E74C450DD1D3692B6053B90F4863
:1074780001920121CAF8081003600E4B1970FFF73A
:1074880057FE019AE1692368C9F81C1011B1086810
:1074980003440B602B689A4218BF012753E700BFCB
:1074A8002C2A00202D2A0020342A0020302A0020EF
:1074B800242A0020202A00200010014000E100E0DA
:1074C80014290020FEFF7F00212A002008B5FFF7BD
:1074D80037FE104B00200B2218809A700E4B186054
:1074E8000E4B18700E4B18700E4B4FF48012C021C3
:1074F800C3F8802183F814131A6002F18042A2F5C0
:107508006F22C2F8080583F81113074BD2F8042537
:107518001A6008BD14290020342A00202C2A0020D3
:107528002D2A002000E100E0302A0020074B9B783C
:107538004BB132B128B10368187C20B959745A612B
:107548007047072070470820704700BF14290020A3
:107558002DE9F7431D4FBB7805460E4690469BB371
:1075680090B304292ED9436973B3437C02A800243D
:10757800012B00F8014D0CBF8946A14600F03CF8EC
:107588000DF10600FFF796FDD0B101230370104BF3
:107598004560D3F80435C0E90498C0E902369DF87F
:1075A80006307B709DF8070000F04AF824B9094BB3
:1075B8004FF48012C3F80021204603B0BDE8F083E1
:1075C8000424EFE70724F7E70824F5E71429002047
:1075D8000010014000E100E0064A92783AB130B16B
:1075E800426922B1002202740221FFF779BD082006
:1075F800704700BF1429002070B5EFF3108672B6EB
:107608000C4A946801239CB993600B4B0B4DD3F83B
:10761800801029401160C3F88050D3F8841051605D
:107628004FF0FF32C3F88420047006B962B670BD0B
:107638000370FAE7382A002000E100E0FC06FFBDED
:10764800084B9A6810B55AB150B9EFF3108172B669
:10765800054A1C6814605C685460986001B962B699
:1076680010BD00BF382A002000E100E001F01F0231
:107678004B090121914000EB830000F01DB801F097
:107688001F0301229A404B0900EB8300D14300F00D
:1076980029B84B0901F01F0150F82300C84000F039
:1076A8000100704750E8002F0B4640E8003C9CF072
:1076B800000FF7D11046704750E8003F43EA010237
:1076C80040E8002C9CF0000FF6D11046704750E8B7
:1076D800002F02EA010340E8003C9CF0000FF6D1BD
:1076E8001046704750E8003F03EA010240E8002CCA
:1076F8009CF0000FF6D11046704750E8003F03EBAE
:10770800010240E8002C9CF0000FF6D110467047AB
:1077180050E8003FA3EB010240E8002C9CF0000F6A
:10772800F6D1104670470121FFF7C6BF0021FFF7C9
:10773800CEBF10B590B1D0E9012301689B1ADBB226
:107748000A60013BDBB2FF2B026802D100201071F6
:1077580010BD11684C1C14600B70F2E70E20F7E79F
:1077680037B5054602A8002400F8014DFFF744FF8D
:107778002A686B68116899420ED9481E106011F882
:10778800014CEB68298A01FB0434AB6811791B1A98
:10779800DBB2994238BF13719DF80700FFF750FF1D
:1077A800204603B030BD37B5054602A8002300F8CF
:1077B800013D0C46FFF720FF2A681368591C116029
:1077C800E968641A298AB4FBF1F41C709DF8070073
:1077D800FFF736FF03B030BD826810B504462AB102
:1077E80043690168006998470023A36010BD0EB47F
:1077F80003B5039929B102AA04AB42F8043D00F08D
:107808006BF802B05DF804EB03B07047826830B4DF
:107818000468551C8560A154D0E901329A4202D30C
:1078280030BCFFF7D9BF30BC704700002DE9F84FD6
:107838009946DDE90A431746824688460A460126E4
:10784800BA420FD24E4538BF4E4613F0010B01D154
:1078580064B900240125B9F1010F1AD909F1FF39DA
:107868007D43F8E7B2FBF7F20136E9E79B070ED54F
:10787800B9F1000F0CBF30252025A642EAD2013C01
:1078880029465046FFF7C2FF002CF6D1E1E7202534
:10789800F3E7B8FBF5F39F42E2D9DFF83890B8FB7D
:1078A800F5F3504619F8031005FB1388FFF7AEFFF0
:1078B800B5FBF7F5002DF2D1BBF1000F02D00CB1EA
:1078C800A64201D3BDE8F88F20215046013CFFF7BE
:1078D8009DFFF4E756AB02002DE9F74F05469046A9
:1078E8000E46002900F03A8116F8011B002958D0ED
:1078F800252940F0D180002702E047F0010716460D
:10790800324612F8013B2D2BF7D0302B04D02B2B0D
:1079180005D147F00407F2E747F00207EFE7002434
:107928002A2B06F101021BD1D8F80030191D1B685B
:10793800C8F800101C44164633782E2B1CD101368B
:107948004FF0000A314611F8012BA2F13000092846
:1079580014D80A2303FB0A23A3F1300A0E46F1E7E1
:1079680012F8013CA3F130010929E5D80A2101FBED
:107978000434303C1646D3E74FF0000A324612F87A
:10798800011B01F0FB0068281646F8D0692916D0BB
:1079980054D8582970D00ED825297DD03378002B9B
:1079A800A2D12B7B002B00F0D980284603B0BDE87C
:1079B800F04FFFF711BF632968D06429EED1D8F8DA
:1079C8000020D2F80090111D89EAE972C8F8001069
:1079D800A2EBE9724FF0010B092A61DCD34538BFED
:1079E800D3462CB1B9F1000F01DB790700D5013C72
:1079F800BA0702D5BAF1000F04D0FB0702D4002C55
:107A080054D10024B9F1000F58DAC9F100092D2129
:107A18002846FFF7FBFE07F00302022A05D1BAF158
:107A2800000F02D1002C4DD10024CDE90047534668
:107A38000A2249462846FFF7F9FEAFE7732954D0D2
:107A480016D87029AAD1D8F800301A1DC8F8002015
:107A5800302128461C68FFF7D9FE78212846FFF711
:107A6800D5FE00220823CDE9003221461022E1E7A5
:107A780075292FD0782991D1D8F800100A1DC8F897
:107A88000020CDE90047534610222CE0D8F80030FA
:107A98001A1D1978C8F800202846FFF7B7FE7DE7B9
:107AA8000A230BF1010B92FBF3F295E7A345A9D248
:107AB80020212846013CFFF7A9FEA0E77807AAD5B0
:107AC8002B21A5E7A345B0D230212846013CFFF77A
:107AD8009DFEA7E7D8F80010CDE900470A1DC8F8B1
:107AE800002053460A220968A4E7D8F800301A1D76
:107AF800C8F80020F907D3F8009012D54F46A7EB35
:107B0800090B17F8011B41B9A345BFF447AF202162
:107B18002846013CFFF77AFEF6E72846FFF776FE8F
:107B2800EDE7B9F1000F17D0484602F0CCFE074642
:107B3800BC4200D954B909F1FF3919F8011F0029CD
:107B48003FF42CAF2846FFF761FEF6E720212846D0
:107B5800013CFFF75BFEEBE74F46E9E703B0BDE802
:107B6800F08F2DE9F047B0F806904479D2F800A0DC
:107B78009DF8208009FB04F4043C06460AEB030048
:107B8800A0420F4688BFA4EB030A191DC2F800A043
:107B9800B1FBF9F509FB15114DB9A9EB01045445E1
:107BA80028BF5446BAF1000F04D1BDE8F087366803
:107BB800013DF1E704317B1970182246B8F1000F36
:107BC8000ED001461846AAEB040A02F020FED14561
:107BD800254436684C464FF0000128BF5446E1E77B
:107BE8001946F0E7FFF7A5BDF8B546790146721EBC
:107BF8000546002393422D6803D30024A64202D8E9
:107C0800F8BD0133F6E70F682846FFF7CCFD0134CD
:107C18003946F3E72DE9F843068ACD1C0746FFF7F6
:107C28009FFD043E35440446B5FBF6F5F0B14FF42C
:107C38008073EDB28380C680013D076081464FF0B6
:107C48000008A84512D23846FFF78AFD064648B113
:107C580063790133637108F10108C9F8000007600E
:107C68008146EEE72046FFF7BFFF34462046BDE8D1
:107C7800F88301210430FFF740BD10B50121044607
:107C88000430FFF745FD10F0FF0F04D12046BDE892
:107C98001040FFF7A9BF10BD1FB504AC44F8042D70
:107CA800002200922246FFF75CFF04B010BD1FB50A
:107CB80004AC44F8042D012200922246FFF751FF3C
:107CC80004B010BD41DF7047064B10B500241C708E
:107CD800054B1C60BFF35F8F0449054800F039F875
:107CE800204610BD4C2A0020502A002068AB020014
:107CF800442A002007B502A8002300F8013DFFF739
:107D08007BFCF1EE103A23F09F03E1EE103ABFF34B
:107D18005F8F0A4B4022C3F884219DF80700FFF7C4
:107D28008FFC02F0B1FB20B1FFF7CCFF03B05DF888
:107D380004FB20BF40BF20BFF8E700BF00E100E020
:107D4800836800225A609A60C3E90422DA601A60E4
:107D580070470B684A684360934208BF002301607C
:107D680008BF43607047436843B10268916852682E
:107D78000B449342436004BF0023436070470000F4
:107D88000D4930B5A1F594720225914201D8002021
:107D98000EE08B1ADB1093FBF5F302EBC30452F8E9
:107DA8003330834205D802D204F10802EDE7606857
:107DB80030BD2146E9E700BFB8AC020008B5FFF7BF
:107DC800DFFF024B002808BF184608BD7DAB020044
:107DD8000C4B1B78062B10D10B4B1B681A070CD1C8
:107DE8000A4B186800F0F003302B08D000F0E000D0
:107DF800A0F14003584258417047002070470120C5
:107E0800704700BFE00F00F0E40F00F0E80F00F04B
:107E1800094B1B78062B0CD1084B1B681A0708D195
:107E2800074B186800F0F000A0F1300358425841A1
:107E380070470020704700BFE00F00F0E40F00F02B
:107E4800E80F00F008B5FFF7C3FF28B17D4B7E4A65
:107E58001B68C3F304231360FFF7DAFF10B17B4BF1
:107E68007B4A1A60FFF7B4FF28B17A4B7A4A1B683D
:107E7800C3F342331360FFF7CBFF20B1774AD368CF
:107E880023F08073D360FFF7A3FF40B14FF0804326
:107E98000022C3F80C21C3F81021C3F83825FFF7D6
:107EA800B7FF10B16E4B03221A60FFF7B1FF40B164
:107EB8006C4B05221A6001229A6700229A603F22C1
:107EC8005A60694B1B78062B50D1684B1B68190701
:107ED8004CD1674B1B6803F0F003502B46D14FF091
:107EE8008052644BD2F80414C3F82015D2F8081451
:107EF800C3F82415D2F80C14C3F82815D2F81014B6
:107F0800C3F82C15D2F81414C3F83015D2F8181485
:107F1800C3F83415D2F81C14C3F84015D2F820144D
:107F2800C3F84415D2F82414C3F84815D2F8281415
:107F3800C3F84C15D2F82C14C3F85015D2F83014E5
:107F4800C3F85415D2F83414C3F86015D2F83814AD
:107F5800C3F86415D2F83C14C3F86815D2F8401475
:107F6800C3F86C15D2F84424C3F87025FFF730FF26
:107F780028B1414B414A1B6803F04F031360FFF7D8
:107F880027FF48B14FF08043D3F80024D20744BFFD
:107F98006FF00102C3F80024394B1B68062B08D187
:107FA800384B1B68062B01BF374A136843F48063BC
:107FB8001360364AD2F8883043F47003C2F8883028
:107FC800BFF34F8FBFF36F8F4FF01023D3F800220A
:107FD800002A03DBD3F80432002B2FDA2C4B0122C2
:107FE800C3F80425D3F80024002AFBD04FF0102250
:107FF8001521C2F80012D3F80024002AFBD04FF054
:1080080010231522C3F80422214B1A46D3F8001472
:108018000029FBD00021C3F80415D2F80034002B46
:10802800FBD0BFF34F8F19491A4BCA6802F4E062BC
:108038001343CB60BFF34F8F00BFFDE7164B174AC2
:108048001A6008BD240300104035014074C0074081
:108058000DF0ADBA440200103C050040F0ED00E020
:10806800A005004010560040E00F00F0E40F00F0BB
:10807800E80F00F000C0004058020010E40E004075
:1080880030010010340100103C17004000ED00E002
:1080980000E001400400FA05D42200200090D0033B
:1080A800044B1A5C012393404FF0A042C2F80C35F0
:1080B800704700BF72B00200044B1A5C0123934062
:1080C8004FF0A042C2F80835704700BF72B00200F6
:1080D80008B50020FFF7F0FF0120FFF7EDFF0220B1
:1080E800FFF7EAFF0320FFF7E7FF0420BDE8084099
:1080F800FFF7E2BFC20738B5054614D54FF0A041D7
:108108000324C1F84447C1F84847C1F84C47C1F8AF
:108118005047C1F80047FFF7DBFF4FF48003C1F871
:108128005847C1F80835AB070AD54FF0A0430C22D1
:10813800C3F83427C3F83827C3F83C27C3F84027C7
:1081480038BD000038B5084C04F10803054600287E
:1081580018BF1C4623682BB11A6822605B68284642
:108168009847F7E738BD00BF5C2A002020B9054BC7
:1081780001225A70FFF7E6BF012802D1014A907028
:10818800F8E77047542A002020B9034B01225A709F
:10819800FFF7D8BF704700BF542A002038B50B4CF2
:1081A800237883B90A486360A3602361E36000F021
:1081B800D1F8054602F068F908B900F0D9F80123AA
:1081C8002370284638BD8525FBE700BF542A0020C8
:1081D8007581020037B502A80023094C00F8013D5B
:1081E800FFF70AFAE368013BE360E56815B900F0B8
:1081F800D3F8A5709DF80700FFF722FA03B030BD49
:10820800542A0020012813B509D003D303281BD012
:1082180002B010BD0F4B0122C3F88020F8E702A876
:1082280000230D4C00F8013DFFF7E6F923780BB960
:10823800FFF7B4FFE3689DF807000133E36001230B
:10824800A370FFF7FDF9E3E700F092F8FFF7C2FF2C
:10825800DEE700BF00E100E0542A00201FB50378E4
:108268008DF8003043680193037A8DF80830C368AD
:108278000393054A054B684653F8213052F82110FC
:10828800984705B05DF804FB682A00206C2A002096
:108298001FB503788DF800304368019383688DF823
:1082A8000830C3680393054A054B684653F82130E4
:1082B80052F82110984705B05DF804FB682A0020A1
:1082C8006C2A0020F0B5194B067891F81DE043F8A8
:1082D8002620174B94460A6943F82620154B03F8C5
:1082E80006E00C4607460FCC89B06D460FC594E8EA
:1082F8000F0085E80F000496BEF1000F0AD0BCF10C
:10830800000F0D4A694608BF0022381D00F09CFD89
:1083180009B0F0BDBCF1000F084A694608BF002249
:1083280007F10C0000F092FBF2E700BF6C2A002076
:10833800682A0020702A00206582020099820200C3
:1083480000F18040002382B0036003680193019B21
:1083580002B07047054A13792BB9012110601171D9
:108368005371184670478520704700BF742A002053
:10837800084B1A68D20706D4C02283F800230122CA
:10838800C3F880211A604FF080430122C3F81825F2
:10839800704700BF00E100E0044B01221A604FF073
:1083A8008042D2F81834DB03FBD470470C0000403D
:1083B800124B1B6810B573B14FF48070FFF7C0FF04
:1083C8004FF080430122C3F808230D4B587910B9A8
:1083D8005A711B6898470B4B1B6873B14FF4827036
:1083E800FFF7AEFF4FF080430222C3F80823044B87
:1083F80001201B68BDE81040184710BD000100406F
:10840800742A00200401004000F1804000F5C040BB
:10841800002382B0036003680193019B02B0704798
:10842800800000F1A040D0F8003723F44033C0F8B2
:108438000037D0F8003743EA0141C0F80017704709
:10844800054B4FF0FF32072843F8202084BF1B1844
:1084580083F84820704700BF7C2A002010B5174CCD
:1084680094F8583043BBFF21E2180133202B82F8DF
:108478003010F9D10021C8B2FFF7E2FF01310C2911
:10848800F9D1042200210E4802F0EAF90D4BC0226E
:1084980083F806234022C3F880214FF4BE701A6087
:1084A800FFF7B2FF084B4FF00042C3F80423012343
:1084B80084F85830002010BD0820FCE77C2A0020F2
:1084C800D02A002000E100E000600040034B93F850
:1084D8005800003018BF0120704700BF7C2A0020D8
:1084E800F0B5394D2C18944694F93040002C68DAD0
:1084F8008E78C6F34006002E15BF002308230827F0
:108508000C27BB4201D10420F0BD55F823200132CD
:108518004FEA830441D12F1845F823C087F830303B
:1085280016B9EA1882F848008A78560716D4D70789
:1085380035D5820002F1A042D2F8006726F0020683
:10854800C2F80067214FC60800F0070C012202FAA2
:108558000CF217F806C042EA0C02BA558A780E786F
:1085680012F0020224D004F1804303F5C043000254
:10857800D3F8102522F4473222F44072C3F81025AC
:108588003604D3F8102500F4F85006F4403630438A
:108598001043C3F810050020B6E70133B1E74E7861
:1085A80000F5E0724FF0A047B60047F82260C9E72F
:1085B800083B2B4493F8500040EA861683F8506035
:1085C800E9E70820A0E700BF7C2A0020D02A002085
:1085D80038B5204C251895F93020072A18DD224493
:1085E80092F848309B09032B0DD14FF0A043D3F8E4
:1085F8001035C34013F0010F0CBF02210321BDE861
:108608003840FFF70DBF012B14BF03210221F6E705
:10861800D3B2072B1CD8930003F1804303F5C04362
:10862800D3F8100540F00100C3F8100502F140002E
:10863800800080B2FFF7E8FE51B195F9303054F868
:1086480023302BB1012303FA02F2034BC3F80423AE
:1086580038BD00BF7C2A0020006000400E4B034458
:1086680093F93020072A02DD0021FFF7D9BED3B2E3
:10867800072B10D8930003F1804303F5C043D3F8C8
:10868800101521F00101C3F81015012303FA02F2B5
:10869800024BC3F8082370477C2A00200060004082
:1086A8004FF0A043D3F8103523FA00F000F0010092
:1086B800704700002DE9FF470024584A584E594D8D
:1086C800019401211368A2F5C040012B80B206D1A4
:1086D800D6F804330B4202D0FFF796FE0C4304325F
:1086E800AA424FEA4101EDD14F4B1B68012B0AD139
:1086F8004FF4BE70FFF788FE4FF0A04344F00044EB
:10870800D3F81035019314F0FF0F1AD0474F002506
:108718000126344210D0AB0003F1804303F5C04377
:10872800D3F81005D3F8101557F82530C0F30420F6
:10873800C1F3014103B198470135082D4FEA4606B8
:10874800E7D1002C66DA00224FF0FF33CDE902238F
:10875800DFF8D8900127002634464FF0A04809EBEF
:10876800060393F95020531C45D0D2B222F0C0051D
:10877800E90804A8084402F0070310F804CC07FA33
:1087880003F31CEA030F36D009EB050C92099CF998
:1087980030C059F82CA0BAF1000F0AD1032A2AD107
:1087A8000DF1080E1EF801C04CEA030C0EF801C0CA
:1087B80001E0032AF4D005F5E07110F80C0C58F824
:1087C80021101842C1F3014105D0022913D1032A0F
:1087D8000BD1114604E003290DD1032A05D102214A
:1087E8002846FFF71DFE0134E4B2BAF1000F02D0AB
:1087F80011462846D0470136042EB0D154B14FF067
:10880800A043019AD3F81035934203D00193029BF9
:108818000393A0E704B0BDE8F08700BF0061004003
:1088280000600040206100407C6100407C2A0020FC
:10883800014B1B68184700BFD82A00200D4B9842EF
:1088480037B50D4610D102A8002300F8013DFEF708
:10885800D3FE094B1C7914B901221D601A719DF8C9
:108868000700FEF7EDFE14B9002003B030BD11205B
:10887800FBE700BF00200040D82A0020034B9842A5
:1088880001BF034B00221A601A7170470020004094
:10889800D82A00200023435082B043580193019BFB
:1088A80002B070470A4610B54FF48E71FFF7F2FF19
:1088B800136A9168C95C136A01331362C0F81C1506
:1088C80010BD8B690A4610B54FF4847123B9FFF7C0
:1088D800E1FFD0F8183510BDFFF7DCFF536AD16807
:1088E800D0F81805C854536A01335362F3E70000FF
:1088F8001FB501238DF80030044BCDE90110D3E9F1
:1089080000126846904705B05DF804FBE02A002095
:1089180030B54C4AD2F8043313F4007F85B01546BD
:108928004FD0D2F82431002B4BD04FF4927110461F
:10893800FFF7B0FF4FF40173C2F80833424B93F8C6
:10894800291009B9012151603E4902228DF8002001
:10895800D1F88024C1F8802403929A690292DA68D7
:1089680001920022C3E906226846D3E90012904723
:108978003448D0F81C315BB133490A6A4B699A42D2
:108988000A464BD291F82830002B47D1FFF78AFFCF
:108998002C4AD2F8443193B14FF4A2711046FFF734
:1089A80079FF294B93F8291009B1012111609A69BF
:1089B8002AB100229A61586AD968FFF799FF05B071
:1089C80030BDD5F804335B07D2D5D5F80831002B74
:1089D800CED01D4C1B482146FFF773FF636AA2697E
:1089E8009A422346C4D1E269E1684AB12369E36047
:1089F8000023606AA261E3616362FFF779FFB7E76A
:108A080094F829200AB901226A600E4A4FF40170CD
:108A1800C2F8080300229A61586AEEE74FF48E7193
:108A28000848FFF737FF51690029B1D000230291A8
:108A380091688DF80030019153616846D2E90013BE
:108A48009847A5E700200040E02A00202DE9F843D8
:108A58005A4B047991462C2202FB0432064692F8BE
:108A68002A200D469846002A40F0A3805449006801
:108A7800FFF7E4FE0746002840F09D802968336828
:108A8800481C0BD04FF0A04001228A40C0F80825AE
:108A980001F5E0724FF0030C40F822C06868421CF0
:108AA8001FBF00F5E0724FF0A04C4FF0000E4CF8DD
:108AB80022E0AA6995F814C0C3F824256A7DBCF1A0
:108AC800010F4CEA0202C3F86C25C3F81405C3F879
:108AD8000C151DD1AA68511C1FBF02F5E0714FF09B
:108AE800A0404FF0000C40F821C0E968481C0BD0AA
:108AF8004FF0A04C01208840CCF8080501F5E07043
:108B08004FF0030E4CF820E0C3F80815C3F8102501
:108B18002C23634308EB0302C2F804902A6948F83F
:108B28000320B9F1000F31D04FF48E7130682D7FDA
:108B3800FFF7B0FE30684FF4A271FFF7ABFE326862
:108B4800204BC2F80433120B53B2002BA8BF03F119
:108B580060404FEA53134FEA4511BABF1A4802F072
:108B68000F0500F561404FEA8303C9B203F1604382
:108B7800B4BF415580F8001303F5614302F01F02AA
:108B8800012101FA02F2C3F880211A603368042235
:108B9800C3F800252C2303FB04830022C3E9062223
:108BA80083F829205A61012283F82A203846BDE833
:108BB800F8830827FAE71127F8E700BFE02A002022
:108BC800198902008000020014ED00E0F8B504796C
:108BD80000682D4D0023C0F800352C2303FB0453F7
:108BE8005B6873B1294BC0F80833020B53B20121FB
:108BF8005B0902F01F0201FA02F22033244941F80E
:108C08002320D0F80C65D0F81415D0F80835D0F822
:108C180010254FF0FF37BE42C0F8147518BF06F58F
:108C2800E076C0F80C75C0F80875C0F810751EBF5E
:108C38004FF0A0474FF0020C47F826C04E1C1FBF4C
:108C48004FF0A04601F5E071022746F82170511C4B
:108C58001FBF4FF0A04102F5E072022641F82260E2
:108C68005A1C1FBF03F5E0734FF0A042022142F8DF
:108C78002310FFF703FE2C2303FB0454002384F87E
:108C88002A306360F8BD00BFE02A00208402020099
:108C980000E100E02DE9F843224F06794FF02C0956
:108CA80009FB067480466569002D37D16261A160B1
:108CB80025624FF48E71006884F82850FFF7EAFDAA
:108CC800D8F80000012383602146FFF7EBFD6368B5
:108CD800A1462BBBD8F80050226A63699A4212D386
:108CE800D8F80030D3F81C21002AFBD00122DA6022
:108CF80000202C2303FB067600237361BDE8F8836C
:108D080094F8283043B9D5F81C31002BF8D04946DF
:108D18002846FFF7C7FDDFE70F20EAE71120EDE758
:108D28002846EBE7E02A00200023435082B043584E
:108D38000193019B02B070471FB501238DF80030E5
:108D4800054B8DF8080001916846D3E90012904759
:108D580005B05DF804FB00BF0C2B00207FB5384A36
:108D6800D2F82461002E49D010464FF49271FFF7D3
:108D7800DBFF02238DF80030D2F88034C2F880344B
:108D88000393D2F83C358DF808302E4BDA680192FF
:108D98000022C3E906226846D3E900129047284A10
:108DA800D2F8443173B14FF4A2711046FFF7BCFFFB
:108DB800244B996931B100219961D2F83C05D968F1
:108DC800FFF7BAFF1E4AD2F82031ABB14FF49071C9
:108DD8001046FFF7A9FF1B4B596969B1D2F84C152A
:108DE8008DF80810002299688DF8002001915A61C9
:108DF8006846D3E90012904704B070BDD2F810312C
:108E0800002BCCD04FF488711046FFF78DFF0D4B27
:108E1800D2F83C0599698842C1D1DC69D96864B146
:108E2800D2F8005225F02005C2F800521A699C6158
:108E3800DA60DE61FFF780FFB1E79C61FAE700BF07
:108E4800002000400C2B00202DE9F8435E4B0679EA
:108E58009146242202FB0632044692F820200D4651
:108E68009846002A40F0AB8058490068FFF7E6FCB6
:108E78000746002840F0A58029682368481C0BD0C5
:108E88004FF0A04001228A40C0F8082501F5E072A1
:108E98004FF0030C40F822C06868421C1FBF00F561
:108EA800E0724FF0A04C4FF0000E4CF822E0AA6997
:108EB80095F814C0C3F824256A7DBCF1010F4CEA6B
:108EC8000202C3F86C25C3F80C15C3F814051DD1AC
:108ED800AA68511C1FBF02F5E0714FF0A0404FF087
:108EE800000C40F821C0E968481C0BD04FF0A04C9A
:108EF80001208840CCF8080501F5E0704FF0030E1A
:108F08004CF820E0C3F80815C3F810252423734350
:108F180008EB0302C2F804902A6948F80320B9F163
:108F2800000F3BD04FF4887120682D7FFFF7FCFEBF
:108F38004FF490712068FFF7F7FE4FF492712068A4
:108F4800FFF7F2FE20684FF4A271FFF7EDFE2268EA
:108F58001F4BC2F80433120B53B2002BA8BF03F106
:108F680060404FEA53134FEA4511BABF194802F05F
:108F78000F0500F561404FEA8303C9B203F160436E
:108F8800B4BF415580F8001303F5614302F01F0296
:108F9800012101FA02F2C3F880211A60236808222D
:108FA800C3F80025242303FB06830022C3E9062215
:108FB8005A61012283F820203846BDE8F883082743
:108FC800FAE71127F8E700BF0C2B0020658D020097
:108FD8001003020014ED00E0F8B5047900682D4D87
:108FE8000023C0F80035242303FB04535B6873B1E6
:108FF800294BC0F80833020B53B201215B0902F078
:109008001F0201FA02F22033244941F82320D0F844
:109018000C65D0F81415D0F80835D0F810254FF0A5
:10902800FF37BE42C0F80C7518BF06F5E076C0F8E9
:109038001475C0F80875C0F810751EBF4FF0A0472A
:109048004FF0020C47F826C04E1C1FBF4FF0A04639
:1090580001F5E071022746F82170511C1FBF4FF03F
:10906800A04102F5E072022641F822605A1C1FBF97
:1090780003F5E0734FF0A042022142F82310FFF7F6
:10908800FDFB242303FB0454002384F82030636091
:10909800F8BD00BF0C2B00201003020000E100E027
:1090A80001F06043B3F1005F2DE9F041074632D18A
:1090B8001C4B0679242505FB063598466C6964BB6C
:1090C8006A61A96000684FF49071FFF72DFE4FF4B4
:1090D800AC713868FFF728FE3B686A69A968C3F86D
:1090E8004415C3F8482501229A606A68BAB9D3F8CA
:1090F8002011D3F8582149B9002AF8D00F20242389
:1091080003FB068600237361BDE8F081002A14BFC3
:109118000F200020F3E71020F6E71120F4E720469F
:10912800F2E700BF0C2B002072DF704773DF704737
:1091380076DF70477ADF70477CDF70477FDF7047E4
:109148008FDF7047B1DF7047FDF76EBF08B5064B7C
:1091580001211878FFF7EAFF08B1FDF765FF002045
:10916800BDE80840FEF79CBFF02200200388212BB1
:1091780013B5044664D02DD8112B36D0132B57D0F5
:10918800102B53D1364B37483749C01AC008000452
:1091980040F00300FDF78AFC0120FEF781FF002064
:1091A800FEF78AFF0320FEF77BFF4FF0A0434FF442
:1091B8008002C3F80C252D4BA1882D48198000F09A
:1091C800DFFF08B1FDF730FFFDF7FEFE70B3FDF7D6
:1091D8002BFF2BE0522B3BD0562B01D03B2B25D11C
:1091E8001321A088FFF7A4FFF0E71D4B1D48214974
:1091F800C01AC008000440F00300FDF757FC012026
:10920800FEF75AFF0320FEF757FF4FF0A0434FF435
:109218008002C3F80825154B4FF6FF721A80FDF738
:10922800E9FE08B1FDF700FFFFF790FF02B010BD9F
:109238000E4800231A4685210088FFF77FFFC5E7FF
:1092480002A9002321F8043D8088FFF779FFBDE7D4
:10925800064800231A4619460088FFF773FFB5E74A
:1092680094A90200BCA9020099B00200F2220020D1
:109278009C2B0020A3B0020008B503784BB9054B1E
:109288003B211888FFF754FF18B1BDE80840FDF7E7
:10929800CBBE08BDF22200200D2810B50C461AD10D
:1092A8000F4B10481049C01AC008000440F00300D2
:1092B800FDF7FCFB0D4B0E491888224601F03EF8DD
:1092C80030F008020BD043F20202904207D043F27A
:1092D8000142904203D0BDE81040FDF7A5BE10BD85
:1092E80094A90200BCA90200B0B00200F22200203A
:1092F800842B002010B50A4B0A4CE41AE408240415
:1093080044F0030402203AB1FEF7CAFE064920469B
:10931800BDE81040FDF7CABBFEF7CEFE0349F6E7ED
:1093280094A90200BCA90200CAB00200DBB0020086
:10933800FDF77ABE00B54FF40041A7B00020FDF755
:10934800EFF908B1FDF770FEFDF722F90120FEF7ED
:10935800D1FEFEF7BBF808B1FDF766FE40F2666283
:1093680001216D48FDF7DCFD08B1FDF75DFEFEF754
:10937800ABFC08B1FDF758FE01F04AF808B1FDF75B
:1093880053FE26AC002344F83C3D0120214601F061
:10939800C5F808B1FDF748FE204601F071F908B19B
:1093A800FDF742FE26AD11235C4805F8783D01F033
:1093B8008AFA5A4982B22846FFF7BEFE08B1FDF77D
:1093C80033FE08220021204601F04AFA544A4FF0A1
:1093D800C8732046CDE91723FFF7ACFE08B1FDF7A7
:1093E80023FE00214F4800F0B9FD08B1FDF71CFE2F
:1093F8000023089321464C4B4C48179300F0AEFECF
:1094080008B1FDF711FE4A4B4A480893294600F077
:109418002DFF08B1FDF708FE41F22353ADF80430E3
:10942800444B3C229B7C8DF806300021284601F0F5
:1094380017FA022301268DF820303C22062300214A
:1094480020468DF822608DF8233001F009FAADF836
:109458006C60394E01AB321D31681C93284600F010
:10946800F1F808B1FDF7E0FD344AB168204600F094
:10947800E9F808B1FDF7D8FD1822002102A801F08B
:10948800EFF900230122ADF8143003934FF48073F1
:109498008DF80820ADF81C3002AA40232649284838
:1094A8000493FFF741FE08B1FDF7BEFD1C22002121
:1094B800204601F0D5F900234FF42022CDE91732D8
:1094C800ADF86A304FF420328DF86C301D4B19928C
:1094D8001C9303221C4B8DF8682020461D9300F036
:1094E8007DFB08B1FDF7A0FD184B194C1949E41A8A
:1094F800E408240444F003042046FDF7D7FA16498B
:109508002046FDF7D3FAFFF721FEFDF763F900289F
:10951800FBD1FEF7EFFBF8E7D8220020EDB0020000
:109528005000A000702B0020519102009C2B0020BD
:10953800FD920200842B0020E0220020EC22002073
:10954800F0220020819202003993020094A90200BF
:10955800BCA90200FBB0020013B102006DDF704726
:1095680079DF70477DDF704764DF70472DE9F74F7B
:109578000C9CBDF834B02788002580468A46914661
:109588002E46B8F80020B2420BDC35B12288013AE9
:10959800D21B92B2FF2A39D8DA55002003B0BDE8B1
:1095A800F08FD8F8042052F82600019000220DF11F
:1095B800030101A8FFF7D8FF0028EFD19DF8032089
:1095C8004A4521D12288002D14BF0020022002EB39
:1095D80009010144594519DC3DB9013292B2228092
:1095E80003F802A022880132228022880DF10301AB
:1095F8001A4401A8FFF7B8FF0028CFD121889DF8A9
:1096080003200A44228001250136BAE70C20C5E769
:109618002DE9F341089CBDF824501746CDE90045D3
:1096280002220646FFF7A2FF48B910223946304603
:10963800CDE9084502B0BDE8F041FFF797BF02B099
:10964800BDE8F0812DE9F04F00231688138090F8CB
:109658002D3085B007460D46144653B3082E01D861
:109668000C2026E102A8FFF779FF002840F02181AD
:1096780013880822CA54238801339BB21B222380F3
:10968800CA542088013080B2208006220DF10901D9
:10969800284401F0BCF823889DF8082006339BB2C3
:1096A80012F0FE0218BF01222380EA5423880133F6
:1096B8002380BB78FBB123880433B342D0D802A8F7
:1096C800FFF74EFF002840F0F48023880322EA5475
:1096D800238801339BB219222380EA542388BDF8DA
:1096E800082001339BB2E9182380EA54120A4A7011
:1096F800238802332380FA789AB12388D91CB1428F
:10970800AED80221E954238801339BB2012123807A
:10971800E95423880B449BB22380EA5423880B44E2
:1097280023807A68AAB12388D91CB14298D802212B
:1097380092F90020E954238801339BB20A2123803F
:10974800E954238801339BB22380EA5423880133E8
:1097580023803B89002B40F0A0803B8A5BB1CDE998
:1097680000462B460722032107F11000FFF750FFA0
:10977800002840F09E803B8B5BB1CDE900462B462C
:109788001522142107F11800FFF742FF002840F0C6
:1097980090803A6A002A40F08F80D7F82480B8F188
:1097A800000F30D0B8F804302188981C8A1C024475
:1097B800B2423FF655AFFE283FF652AF03336B5423
:1097C800238801339BB2FF222380EA542388013384
:1097D8009BB22380B8F80020EA54E918120A4A70AC
:1097E8002088023080B22080B8F804205AB1D8F816
:1097F800081000296AD0284401F009F82388B8F82D
:1098080004201344238097F82C30002B40F09980D3
:10981800387800284DD03B88012B57D021888A1CE6
:10982800B2423FF61DAF012805D17B7802330B44C5
:109838009E42FFF415AF023E761A04A9B6B221F88B
:10984800086DA818FFF78EFE98BB3978BDF8082078
:10985800022900F0BB807B78934202D3B24240F2E7
:10986800B380012940F0B4809BB29E42C0F0B08022
:10987800ADF808300821BDF80830FE2B3FF6F0AEF1
:1098880022880133AB542288013292B22280A95433
:1098980022881344238000200BE0CDE900462B46A4
:1098A8000622022107F10800FFF7B2FE00283FF464
:1098B80054AF05B0BDE8F08FB4F800C00CF1060352
:1098C800B3423FF6CDAE1188052901D80720F0E74D
:1098D8006FF4486E01EB0E039BB24FF27D3E734569
:1098E800F4D95388052BF1D96FF44860181880B261
:1098F8007045EBD94FF6FF70814203D0834201D007
:109908009942E3D8052305F80C30238801339BB22C
:1099180012212380E954238801339BB223801188C4
:10992800E954E818090A4170238802339BB223805E
:109938005288EA54E918120A4A70238802332380AD
:109948002BE7BB6A002BC1D04FF000094FF00C0A7F
:109958004FF0160B97F82C305FFA89F293427FF696
:1099680057AFB96A0AFB02F201EB0208B8F80430F3
:10997800981CFE283FF674AE208803332B542388A6
:1099880001339BB2238005F803B0238801339BB2CF
:1099980023808A5AEA54E918120A4A702088023049
:1099A80080B22080B8F804205AB1D8F808100029ED
:1099B8008CD0284400F02BFF2388B8F804201344E7
:1099C800238009F10109C5E7092154E7B242FBD90F
:1099D800ADF808604EE775DF704776DF70477ADFCD
:1099E80070477BDF70470000034B1A8882420CBF28
:1099F80018460020704700BFC42B0020024B9B690B
:109A080003B11847704700BFA82B002037B585B2AF
:109A18002846FFF7E9FF034670B1164C017A227B0E
:109A280091420BD200F10A012846FFF7D4FFE8B1B2
:109A3800112801D0FFF7E2FF03B030BD237C0022DC
:109A4800027243B13B212846FFF7C7FF30F00803F5
:109A580001D0FFF7D3FF6369002BEDD000228DF80A
:109A68000420ADF8065001A89847E5E71A7A0132B4
:109A78001A72E1E7A82B002013B50B46497A0F4C60
:109A8800024669B9D4E901101C7A002C18BF0146B6
:109A98005868FDF75DFD08B1FFF7B0FF02B010BDD3
:109AA800002119726369002BF8D00121ADF8060076
:109AB8008DF8041001A89847F0E700BFA82B0020F4
:109AC8008388B3F5FA7F28BF6FF4F97230B528BFE1
:109AD8009C1805884A8838BF002495420CD84088CD
:109AE800904209D38A88A24206D303F2F310904227
:109AF80034BF0020012030BD0020FCE70388112B73
:109B080070B5014648D002D8102B1ED070BD122B5C
:109B180052D0502BFAD12F4BC288DB899A42F5D10B
:109B2800038A022BF2D186883046FFF75DFF05468F
:109B38000028EBD001F1120000F025F930BB68686D
:109B4800FDF74AFD0028E1D009E0C37B012BDDD1F8
:109B58004FF6FF70FFF748FF054620B90420BDE81F
:109B68007040FFF74BBF1C4A8E88068000230372A3
:109B78001368C5F80A300A30536843601031FFF79C
:109B88009FFF144B6872DB89002BBFD129463046F2
:109B9800BDE87040FFF770BF8088FFF725FF0446D7
:109BA8000028B3D04068FDF717FD08B1FFF726FF7E
:109BB8004FF6FF732380A9E786883046FFF714FF26
:109BC80005460028A2D008310A30FFF779FF6872ED
:109BD800DCE700BFA82B0020D82B0020F8B50646EC
:109BE80050B305460FCD154F3C460FC495E8070006
:109BF80084E807003068124B3B60B8B1FFF7EFFE0E
:109C0800C8B931680A681A604A685A600D480E4A2D
:109C18004FF6FF7303800D4B40F8043F0021FDF71A
:109C280085FC002814BF0320002004E01846FFF735
:109C3800D8FE0028EAD0F8BD0E20FCE7A82B0020AB
:109C4800D82B0020C42B0020159A0200E02B0020FE
:109C580073B50191019C06466CB100252C46294636
:109C680001A8FDF716FD18B106EB440301349D80E9
:109C78000135142DF3D13046346002B070BD0000B8
:109C88002DE9F04303888488112B8DB0064640D017
:109C98001A2B43D0102B16D1294DAB680CA8DB43E7
:109CA80040F8303D55F8041FFDF71CFD009901A848
:109CB800FFF7CEFF0027019B9F4207D3132C18D92B
:109CC8000420FDF7B1F90DB0BDE8F08301AB03EB5B
:109CD80047034FF00008B3F8049005EB0800494625
:109CE80008F10408FDF7CBFCB8F1740FF5D1013782
:109CF800E1E721461348FDF7B9FC21461248FDF774
:109D0800B5FCF37B012BDED010482146FDF7AEFCF5
:109D1800D9E70C482146FDF7B2FCD4E7057A0C4890
:109D28002D09012D214606D9FDF7A0FC022D21465B
:109D38000848F0D0EAE7FDF7A2FC21460548EAE723
:109D4800002C0020082C0020042C00200C2C0020C3
:109D5800102C0020142C0020AADF704700230138A3
:109D68000B70042806D8DFE800F00306080A0C0088
:109D780011230B7070472123FBE73123F9E71223E6
:109D8800F7E72223F5E7007800F001007047F0B507
:109D98008B7891B005460C46164603B90123032279
:109DA8008DF80E3000212388ADF80C30684600F09D
:109DB80057FD6946607CFFF7D1FF0DF10101A07CDA
:109DC800FFF7CCFF9DF80230E27B62F3C303227CED
:109DD80062F30413227B62F30003227D002A14BF7E
:109DE8000222012262F3420300211C2209A88DF8F5
:109DF800023000F035FD637B13F0300F15D002AF51
:109E080003220021384600F02BFD0DF10901E07C0A
:109E1800FFF7A4FF11238DF808309DF80A300E973C
:109E2800012262F342038DF80A30637B8DF82430F7
:109E38001422A37B8DF82530002104A800F010FD22
:109E480003AB0493A388ADF81C30A368CDF814D0F5
:109E58001BB1E288ADF818200893A369002B2ED017
:109E680001AF03220021384600F0FAFCA3691A88E2
:109E7800ADF82C205A88187BADF82E2039465A6840
:109E88000A920D97FFF76AFFA3690DF10501587B48
:109E9800FFF764FFA2699DF80630917A61F3C30366
:109EA800D17A61F30413117A927B002A61F30003DB
:109EB80014BF0222012262F342038DF80630E369DF
:109EC80003B10C93334604AA09A92846FFF744FFB7
:109ED80011B0F0BD90DF7047A5DF7047B5DF704760
:109EE8007FB50023ADF80810ADF80A106A4602A93C
:109EF800064603930093ADF80430FFF7EBFF0546E1
:109F0800F8B1114B114CE41AE408FDF757FF24048B
:109F180044F00104034632460D492046FCF7D4FDBF
:109F2800BDF80020BDF8023002B91BB1094920462E
:109F3800FCF7CAFDBDF804201AB107492046FCF712
:109F4800B9FD284604B070BD94A90200CCA902004E
:109F580032B102007CB10200BBB1020080B14FF007
:109F6800171303601B2303711723C380038141F672
:109F78001B32002301618372C372828118467047C5
:109F88000E20704713B5034680880C46A0B91A887E
:109F9800232A00F0AE8011D8102A25D0112A54D0D7
:109FA800A37A4BB1E1880020FFF796FF002840F024
:109FB800A6800123A072E37202B010BD3A2A4DD0E8
:109FC800552A67D0242AEBD11A7A0B694A73002BD9
:109FD800E6D04DF67A21ADF80400ADF80010ADF8E2
:109FE80002008DF8042080E0DB7B0A790A73012BDC
:109FF80013D0022B14D0E18823898B4205D200208C
:10A00800FFF76AFF70B90123E372217B637B8B4200
:10A01800C6D20020FFF764FFC2E70B88E380EAE7B7
:10A028004B88FBE7112802D10123A372EDE7FDF766
:10A03800C5FE3B4A3B4B3C499B1ADB081B040246C6
:10A0480043F00100FCF736FDDFE71723CB800B81D7
:10A0580041F61B338872C8728B81A1E75B89CA8875
:10A06800934228BF1346172B0A6938BF17230B8161
:10A0780062B1C97A51B140F67721ADF80010ADF858
:10A088000200ADF804306946204690470023E37289
:10A09800A37285E7DB88C988A072172B38BF1723FE
:10A0A8008B4228BF0B462381FFF718FF60B1FDF7ED
:10A0B80085FE1B4A1B4B1D499B1ADB081B040246E5
:10A0C80043F00100FCF7F6FCE27A002A7FF468AF5F
:10A0D8002369002B3FF464AF40F67721ADF80220E6
:10A0E8002289ADF80010ADF804206946204698474B
:10A0F80056E7197A237B994228BF19468AE711281F
:10A108003FF45AAFFDF75AFE054A064B06499B1A1B
:10A11800DB081B04024643F00100FCF7CBFC4BE7CD
:10A1280094A90200CCA9020011B2020042B20200B6
:10A13800B0DF704766DF7047034610B500214088DE
:10A14800FFF7F8FF024608B91A7210BD112801D1AD
:10A158000122F9E75B68BDE81040184760B159B1C2
:10A168000378DE2B0AD00B684360DE2303704FF6BA
:10A17800FF734380002070470E2070470820704707
:10A1880028B10378DE2B04D14180002070470E20CF
:10A19800704708207047F0B5054685B00C46F1B108
:10A1A800E8B10B78DE2B1AD182884B889A4204D109
:10A1B8000B7A13B10846FFF7BFFF2B88112B32D05B
:10A1C800512B0ED0012B0AD12B7A012B07D1A9884C
:10A1D8006288914203D123722046FFF7ADFF05B094
:10A1E800F0BDAE886388B342F9D1AF79022FF6D1BA
:10A1F800AD7B2B1F022BF2D800211022684600F0FD
:10A208002FFB052D14BF4FF4C07300236946304659
:10A218008DF80070ADF80430FFF78AFF0028DED013
:10A2280063689847DBE76388AA889A4204BF4FF6B9
:10A23800FF736380D3E7A8DF7047AEDF704762DF44
:10A2480070470288502A10B40DD1C4884A889442B5
:10A2580009D1028A012A06D14B6923B1827C5DF8B3
:10A26800044B808818475DF8044B7047F0B50B68BD
:10A2780043618FB0304B02AA044603F1100716461B
:10A2880018685968154603C50833BB422A46F7D1F2
:10A2980004F112013046FFF7D2FF00284AD1A37C0F
:10A2A8008DF806300EA941F2235321F8343D224699
:10A2B8000120FFF7C0FF00283CD10146202206A854
:10A2C80000F0CEFA41F22453ADF81830A37C8DF893
:10A2D8001A309DF82530208801254FF0011643F0EB
:10A2E800120304F10A0206A907968DF825308DF8A5
:10A2F80029508DF82B50FFF74AFDD8B90146202286
:10A3080006A800F0ADFA41F22553ADF81830A37C49
:10A318008DF81A309DF825302088079643F00A03F7
:10A32800A21C06A98DF825308DF829508DF82A50E1
:10A33800FFF72DFD0FB0F0BD7EB2020070B588B0FA
:10A348000E468DF807201022054601240DEB020069
:10A358000021ADF80E4000F083FA7389ADF8103093
:10A368000DF10703079304A90DF10E0328468DF894
:10A3780012400693FFF761FF08B070BD10DF704709
:10A3880013B5044609496846FDF7E3FC019808B986
:10A3980002B010BDD0E900312046984718B1684690
:10A3A800FDF7E1FCF2E71120F2E700BF94B20200EA
:10A3B80013B5044607496846FDF7CBFC019B0BB96A
:10A3C80002B010BD2046D3E9002190476846FDF74A
:10A3D800CAFCF3E7ACB202000B4991F816335A09EC
:10A3E800EC231341DB0706D5084B9A683AB94FF4BA
:10A3F80080030B60704742F20200FCF715BE1A6832
:10A4080042F480021A60704700E100E0382A002018
:10A41800F7B5184F3C785CBB174E012520463570C0
:10A42800FFF7AEFF112820D02046FFF7C1FF134BDE
:10A438001868019002A800F8054DFDF7DDF81049ED
:10A4480001A8FFF79BFF0446B0FA80F04009387076
:10A458009DF80300FDF7F4F83CB90A4B34701C7002
:10A46800FFF7BAFF2846FFF7A3FF204603B0F0BD69
:10A478000824FAE7792C0020782C00208EB20200FC
:10A488004D7002007A2C0020014B1878704700BFED
:10A49800792C002007B508496846FDF75AFC019B4E
:10A4A80013B903B05DF804FBD3E900209047684670
:10A4B800FDF759FCF3E700BFA0B20200FFF7EABFBF
:10A4C80060DF704769DF704761DF704730B5114B57
:10A4D8001B7891B0E3B1104D34240DF1020103A8AB
:10A4E800ADF80240FFF7F0FF70B9294601A8FDF763
:10A4F80030FC029B002BF0D003A8D3E90021904741
:10A5080001A8FDF730FCF4E7052801D0FCF78CFD25
:10A5180011B030BD7B2C0020ECB4020030B50546EC
:10A5280085B00C46002900F099804D4B0B600C2239
:10A53800002101A800F094F901238DF80630226863
:10A548008DF80450062301A92020ADF80830FFF744
:10A55800B9FF60B1FDF732FC424A434B43499B1AAD
:10A56800DB081B04024643F00100FCF7A3FA0C22A7
:10A57800002101A800F074F901238DF80530226844
:10A58800002301A940208DF806308DF80730FFF729
:10A5980099FF60B1FDF712FC324A334B34499B1ADC
:10A5A800DB081B04024643F00100FCF783FA0C2287
:10A5B800002101A800F054F90A2322688DF804301C
:10A5C80001A90120FFF77EFF60B1FDF7F7FB254ADF
:10A5D800254B28499B1ADB081B04024643F001005F
:10A5E800FCF768FA0C22002101A800F039F94FF4B1
:10A5F800B0632268019301A9A120FFF763FF60B14E
:10A60800FDF7DCFB174A184B1B499B1ADB081B0498
:10A61800024643F00100FCF74DFA0C22002101A884
:10A6280000F01EF99DF8043022686FF3000301A9B9
:10A63800A0208DF80430FFF745FF68B1FDF7BEFB99
:10A64800084A094B0D499B1ADB081B04024643F0D4
:10A658000100FCF72FFA002005B030BD0E20FBE703
:10A66800B822002094A90200DCA90200C0B20200AE
:10A6780006B3020052B302009EB30200EFB3020019
:10A68800F8B506460768FFF71BFF3368BB42054667
:10A698001DD9194B194C1A49E41AE408240444F04A
:10A6A80002042046FCF702FA336816493A46204667
:10A6B800FCF70AFA4FF080533268D3F80C3112498C
:10A6C8009B0203F100539A1A2046FCF7F3F925B9C7
:10A6D8000E4B01221A702846F8BD2846FDF76EFB7E
:10A6E800054A064B0A499B1ADB081B04024643F03D
:10A6F8000100FCF7DFF9EEE794A90200DCA90200EB
:10A7080042B4020071B40200A2B402007B2C002003
:10A71800CCB402004BDF70471FB50D4C01A8FFF702
:10A72800F9FF70B9214602A8FDF713FB039B002B24
:10A73800F4D00198D3E90021904702A8FDF713FB54
:10A74800F4E7052801D0FCF76FFC04B010BD00BF8A
:10A7580004B502007F2805D8034B185C034B5B5CEB
:10A7680018407047002070471CB502009CB50200D5
:10A77800A0F16103192B98BF20387047A0F141035D
:10A78800192B98BF203070477F2805D8034B185CD9
:10A79800034B5B5C18407047002070471CB50200F3
:10A7A8009CB50200A0F16103192B98BF20387047AF
:10A7B800A0F14103192B98BF203070477F299ABF19
:10A7C800017001206FF02E0070475AB10A787F2A75
:10A7D8000AD800B10260002119605960501A18BFE8
:10A7E80001207047002070476FF02E00704700006E
:10A7F80008B5034B5B689B681B68984708BD00BF9A
:10A80800F422002008B50921FFF7F2FF08BD8446AD
:10A8180040EA010313F0030F18D18446202A0BD312
:10A828002DE9F007B1E8F807A0E8F807A2F120023F
:10A83800202AF7D2BDE8F007042A07D351F8043BD1
:10A8480040F8043BA2F10402042AF7D2002A05D0FA
:10A8580011F8013B00F8013B013AF9D16046704715
:10A868008446002A2DD010F0030F04D000F8011BF5
:10A87800013A26D0F7E7C9B241EA012141EA01418C
:10A88800202A12D3A2F120022DE9F0030B460C4630
:10A898000D460E460F4688468946A0E8FA03203A38
:10A8A800FBD2BDE8F00320320BD0042A05D340F8D0
:10A8B800041B043A05D0042AF9D200F8011B013A16
:10A8C800FBD16046704700F1010110F0030F11D071
:10A8D80010F8012B002A23D010F0030F0AD010F82B
:10A8E800012B002A1CD010F0030F03D010F8012B05
:10A8F800002A15D02DE970004FF001324FF0803357
:10A9080050F8044BA4EB020525EA04051D4000D1CC
:10A91800F6E7A0F1040070BC10F8012B002AFBD167
:06A92800A0EB01007047E6
:08A9300091810200000000000B
:10A93800899C0200000000008D9F0200702B0020FF
:10A94800059B0200000000009FA102009C2B002034
:10A958004BA20200842B0020759102000000000029
:10A96800D5A402000000000021A70200000000009A
:08A978000D8202000000000046
:10A980004C230020142400201C24002054230020E9
:04A9900018000000AB
:10A994007DB002000000000083B00200000000004F
:10A9A4008AB00200000000008EB002000000000027
:10A9B40093B002000000000061AA0200000003033B
:10A9C40077B002000000000071B20200000003032F
:10A9D400B8B2020000000303F8B40200000003034D
:10A9E40010B502000000030374AB02000000000075
:10A9F40024AA02000000000030AA0200CC22002099
:10AA0400FFFFFFFFFFFFFFFFFFFFFFFFFFFFFFFF52
:10AA140000000000000000000000D6010601000054
:10AA24000165020065650200B1640200756172741B
:10AA34005F6C6F675F6261636B656E64000000004A
:10AA4400402800207F000000C02800204261636B82
:10AA5400656E647320666C757368656400617070FC
:10AA6400000000009BAA0200E4AA0200A3AA0200BC
:10AA7400ECAA0200F4AA0200FCAA020004AB020041
:10AA84000CAB020014AB02002025303278002020E9
:10AA940020007C002563001B5B306D002573001BC8
:10AAA4005B313B33316D0025734C6F6773206472E7
:10AAB4006F70706564202825642925730D0A003C95
:10AAC40025733E2025733A2000000000000000009A
:10AAD4003AAB02001CAB020024AB020029AB02001B
:10AAE4001B5B313B33306D001B5B313B33326D00FC
:10AAF4001B5B313B33336D001B5B313B33346D00E7
:10AB04001B5B313B33356D001B5B313B33366D00D2
:10AB14001B5B313B33376D007761726E696E670082
:10AB2400696E666F0064656275670000E028002046
:10AB3400466174616C206572726F7200537973742C
:10AB4400656D207265736574000000000338FDD8DC
:10AB54007047303132333435363738394142434423
:10AB64004546000038A9020038A90200040000008C
:10AB74007077725F6D676D7400556E6B6E6F776E74
:10AB8400206572726F7220636F64650000000000BC
:10AB9400B8AC020001000000C4AC020002000000D6
:10ABA400E2AC02000300000003AD02000400000058
:10ABB40016AD02000500000027AD020006000000EB
:10ABC4003BAD02000700000053AD02000800000086
:10ABD4006BAD02000900000083AD02000A00000012
:10ABE4009CAD02000B000000B4AD02000C0000009C
:10ABF400CBAD02000D000000DFAD02000E0000002E
:10AC0400F1AD02000F00000000AE020010000000D1
:10AC140014AE0200110000002BAE0200120000006E
:10AC24003AAE0200130000004FAE020080000000A4
:10AC340063AE02008100000084AE020082000000C6
:10AC4400A0AE020083000000BCAE0200840000003D
:10AC5400DAAE020085000000FBAE020086000000B0
:10AC640020AF02009000000037AF02009100000006
:10AC740055AF02009200000073AF02000082000092
:10AC840088AF020001820000A6AF02000282000029
:10AC9400C2AF020000840000DEAF020001840000A5
:10ACA40002B00200028400002CB002000384000001
:10ACB40051B002004E52465F53554343455353002F
:10ACC4004E52465F4552524F525F5356435F48417E
:10ACD4004E444C45525F4D495353494E47004E52E2
:10ACE400465F4552524F525F534F4654444556496E
:10ACF40043455F4E4F545F454E41424C4544004EE0
:10AD040052465F4552524F525F494E5445524E414E
:10AD14004C004E52465F4552524F525F4E4F5F4D6C
:10AD2400454D004E52465F4552524F525F4E4F546E
:10AD34005F464F554E44004E52465F4552524F5265
:10AD44005F4E4F545F535550504F52544544004E3C
:10AD540052465F4552524F525F494E56414C494408
:10AD64005F504152414D004E52465F4552524F5240
:10AD74005F494E56414C49445F5354415445004E3B
:10AD840052465F4552524F525F494E56414C4944D8
:10AD94005F4C454E475448004E52465F4552524F11
:10ADA400525F494E56414C49445F464C414753001B
:10ADB4004E52465F4552524F525F494E56414C499E
:10ADC400445F44415441004E52465F4552524F52F3
:10ADD4005F444154415F53495A45004E52465F45D2
:10ADE40052524F525F54494D454F5554004E5246AE
:10ADF4005F4552524F525F4E554C4C004E52465F87
:10AE04004552524F525F464F5242494444454E00C8
:10AE14004E52465F4552524F525F494E56414C493D
:10AE2400445F41444452004E52465F4552524F5291
:10AE34005F42555359004E52465F4552524F525F3E
:10AE4400434F4E4E5F434F554E54004E52465F455E
:10AE540052524F525F5245534F5552434553004E41
:10AE640052465F4552524F525F4D4F44554C455FD9
:10AE74004E4F545F494E495449414C495A45440048
:10AE84004E52465F4552524F525F4D555445585F9E
:10AE9400494E49545F4641494C4544004E52465F31
:10AEA4004552524F525F4D555445585F4C4F434B9A
:10AEB4005F4641494C4544004E52465F4552524F0D
:10AEC400525F4D555445585F554E4C4F434B5F466A
:10AED40041494C4544004E52465F4552524F525FE1
:10AEE4004D555445585F434F4E445F494E49545F56
:10AEF4004641494C4544004E52465F4552524F52DA
:10AF04005F4D4F44554C455F414C52454144595F58
:10AF1400494E495449414C495A4544004E52465FB2
:10AF24004552524F525F53544F524147455F465525
:10AF34004C4C004E52465F4552524F525F4150496D
:10AF44005F4E4F545F494D504C454D454E5445441A
:10AF5400004E52465F4552524F525F46454154554A
:10AF640052455F4E4F545F454E41424C4544004E5E
:10AF740052465F4552524F525F494F5F50454E44CF
:10AF8400494E47004E52465F4552524F525F44521B
:10AF9400565F5457495F4552525F4F56455252557A
:10AFA4004E004E52465F4552524F525F4452565FD6
:10AFB4005457495F4552525F414E41434B004E52F4
:10AFC400465F4552524F525F4452565F5457495F51
:10AFD4004552525F444E41434B004E52465F4552E8
:10AFE400524F525F424C455F495053505F52585F35
:10AFF400504B545F5452554E4341544544004E52B5
:10B00400465F4552524F525F424C455F4950535040
:10B014005F4348414E4E454C5F414C524541445973
:10B024005F455849535453004E52465F4552524F60
:10B03400525F424C455F495053505F4C494E4B5F01
:10B04400444953434F4E4E4543544544004E5246A3
:10B054005F4552524F525F424C455F495053505FD7
:10B06400504545525F52454A4543544544001112E8
:10B07400131400636C6F636B00434C4F434B0047E6
:10B0840050494F54450050525300554152540055B5
:10B094004152544500436F6E6E65637465640044A9
:10B0A4006973636F6E6E65637465640053656E6483
:10B0B40020627574746F6E207374617465206368A4
:10B0C400616E67652E005265636569766564204C20
:10B0D4004544204F4E2100526563656976656420BE
:10B0E4004C4544204F464621004E6F726469635FAD
:10B0F400426C696E6B7900426C696E6B792065787D
:10B10400616D706C6520737461727465642E00489F
:10B11400656C6C6F48656C6C6F2C20546869732087
:10B1240069732054656E646F204D617961007364A6
:10B134005F626C655F6761705F646174615F6C65B9
:10B144006E6774685F75706461746528292028725D
:10B1540065717565737429206F6E20636F6E6E65FB
:10B164006374696F6E203078257820726574757207
:10B174006E65642025732E005468652072657175B0
:10B1840065737465642054582F5258207061636B42
:10B194006574206C656E67746820697320746F6FC2
:10B1A400206C6F6E672062792025752F2575206FBE
:10B1B40063746574732E00546865207265717565D7
:10B1C4007374656420636F6D62696E6174696F6E18
:10B1D400206F6620545820616E642052582070619C
:10B1E400636B6574206C656E677468732069732083
:10B1F400746F6F206C6F6E67206279202575206DE7
:10B204006963726F7365636F6E64732E0073645F3A
:10B21400626C655F67617474635F65786368616EAF
:10B2240067655F6D74755F726571756573742829E0
:10B234002072657475726E65642025732E007364C4
:10B244005F626C655F67617474735F65786368617E
:10B254006E67655F6D74755F7265706C79282920FF
:10B2640072657475726E65642025732E006E726645
:10B274005F626C655F676174740023D1BCEA5F78B8
:10B284002315DEEF12120000000001000007000089
:10B2940078A9020078A902000800000068A9020049
:10B2A40078A902000800000078A9020080A9020021
:10B2B400080000006E72665F7364680073645F6206
:10B2C4006C655F6366675F736574282920726574B3
:10B2D40075726E6564202573207768656E206174CD
:10B2E40074656D7074696E6720746F207365742063
:10B2F400424C455F434F4E4E5F4346475F47415084
:10B304002E0073645F626C655F6366675F73657468
:10B3140028292072657475726E6564202573207700
:10B3240068656E20617474656D7074696E672074ED
:10B334006F2073657420424C455F4741505F43461C
:10B34400475F524F4C455F434F554E542E00736434
:10B354005F626C655F6366675F736574282920723A
:10B36400657475726E6564202573207768656E2038
:10B37400617474656D7074696E6720746F20736591
:10B384007420424C455F434F4D4D4F4E5F434647FB
:10B394005F56535F555549442E0073645F626C6574
:10B3A4005F6366675F7365742829207265747572BC
:10B3B4006E6564202573207768656E2061747465FA
:10B3C4006D7074696E6720746F2073657420424CCD
:10B3D400455F47415454535F4346475F4154545279
:10B3E4005F5441425F53495A452E0073645F626C57
:10B3F400655F6366675F7365742829207265747579
:10B40400726E6564202573207768656E206174749C
:10B41400656D7074696E6720746F20736574204263
:10B424004C455F47415454535F4346475F5345522D
:10B43400564943455F4348414E4745442E00496EB3
:10B4440073756666696369656E742052414D206147
:10B454006C6C6F636174656420666F7220746865D8
:10B4640020536F66744465766963652E0043686192
:10B474006E6765207468652052414D207374617253
:10B4840074206C6F636174696F6E2066726F6D20D7
:10B494003078257820746F20307825782E004D611F
:10B4A40078696D756D2052414D2073697A65206607
:10B4B4006F72206170706C69636174696F6E20696A
:10B4C4007320307825782E0073645F626C655F6545
:10B4D4006E61626C6528292072657475726E65648C
:10B4E4002025732E0000000038A9020068A902007C
:10B4F400080000006E72665F7364685F626C6500CA
:10B5040030A9020038A90200080000006E72665FCC
:10B514007364685F736F6300202020202020202044
:10B5240020682828282820202020202020202020AF
:10B53400202020202020202048101010101010104F
:10B544001010101010101010848484848484848457
:10B554008484101010101010108181818181810168
:10B5640001010101010101010101010101010101C7
:10B574000101011010101010108282828282820256
:10B584000202020202020202020202020202020297
:10B5940002020210101010200007032004170201F9
:10B5A400085710408000000050B7020014B6020093
:10B5B40028B7020053756E004D6F6E005475650018
:10B5C40057656400546875004672690053617400DD
:10B5D400000000004A616E00466562004D61720021
:10B5E400417072004D6179004A756E004A756C00B5
:10B5F40041756700536570004F6374004E6F7600A9
:10B604004465630000000000414D00504D000000FF
:10B614004CB7020048B7020048B7020048B702001E
:10B6240048B7020048B7020048B7020048B7020012
:10B6340048B7020048B70200FFFFFFFFFFFFFFFF0C
:10B64400FFFFFFFFFFFF000088B60200B8B502004D
:10B65400C4B60200D8B502000CB602006CB60200F3
:10B664001CB7020078B60200256D2F25642F2579BA
:10B674000000000025612025622025652025542036
:10B684002559000053756E646179004D6F6E6461D5
:10B69400790054756573646179005765646E6573E8
:10B6A40064617900546875727364617900467269E3
:10B6B40064617900536174757264617900000000FB
:10B6C4004A616E756172790046656272756172795C
:10B6D400004D6172636800417072696C004D61795C
:10B6E400004A756E65004A756C790041756775731B
:10B6F400740053657074656D626572004F63746F96
:10B70400626572004E6F76656D62657200446563B2
:10B71400656D62657200000025483A254D3A25534F
:10B72400000000005DA7020079A7020085A70200BF
:10B7340091A70200ADA70200B9A70200C5A70200A5
:10B74400D3A70200000000002E0000004300000008
:08B75400504F5349580000005A
:10B75C00000000000020004000000000002000401D
:10B76C000000000000000000FF0000000090D0036B
:10B77C000D000300A1920200302B00201F000000DE
:10B78C004F2B00201F000000FF00FFFFACB5020094
:10B79C00ACB50200ACB50200ACB50200ACB5020011
:0400000320006379FD
:00000001FF
